{
  "_format": "hh-sol-artifact-1",
  "contractName": "budgetModifier",
  "sourceName": "contracts/modifiers/budgetModifier.sol",
  "abi": [
    {
      "inputs": [],
      "stateMutability": "nonpayable",
      "type": "constructor"
    },
    {
      "inputs": [
        {
          "internalType": "address",
          "name": "guard_",
          "type": "address"
        }
      ],
      "name": "NotIERC165Compliant",
      "type": "error"
    },
    {
      "anonymous": false,
      "inputs": [
        {
          "indexed": false,
          "internalType": "address",
          "name": "guard",
          "type": "address"
        }
      ],
      "name": "ChangedGuard",
      "type": "event"
    },
    {
      "anonymous": false,
      "inputs": [
        {
          "indexed": false,
          "internalType": "address",
          "name": "avatar",
          "type": "address"
        }
      ],
      "name": "DisabledAvatar",
      "type": "event"
    },
    {
      "anonymous": false,
      "inputs": [
        {
          "indexed": false,
          "internalType": "address",
          "name": "module",
          "type": "address"
        }
      ],
      "name": "DisabledModule",
      "type": "event"
    },
    {
      "anonymous": false,
      "inputs": [
        {
          "indexed": false,
          "internalType": "address",
          "name": "avatar",
          "type": "address"
        }
      ],
      "name": "EnabledAvatar",
      "type": "event"
    },
    {
      "anonymous": false,
      "inputs": [
        {
          "indexed": false,
          "internalType": "address",
          "name": "module",
          "type": "address"
        }
      ],
      "name": "EnabledModule",
      "type": "event"
    },
    {
      "anonymous": false,
      "inputs": [
        {
          "indexed": true,
          "internalType": "address",
          "name": "module",
          "type": "address"
        }
      ],
      "name": "ExecutionFromModuleFailure",
      "type": "event"
    },
    {
      "anonymous": false,
      "inputs": [
        {
          "indexed": true,
          "internalType": "address",
          "name": "module",
          "type": "address"
        }
      ],
      "name": "ExecutionFromModuleSuccess",
      "type": "event"
    },
    {
      "anonymous": false,
      "inputs": [
        {
          "indexed": false,
          "internalType": "uint8",
          "name": "version",
          "type": "uint8"
        }
      ],
      "name": "Initialized",
      "type": "event"
    },
    {
      "anonymous": false,
      "inputs": [
        {
          "indexed": true,
          "internalType": "address",
          "name": "previousOwner",
          "type": "address"
        },
        {
          "indexed": true,
          "internalType": "address",
          "name": "newOwner",
          "type": "address"
        }
      ],
      "name": "OwnershipTransferred",
      "type": "event"
    },
    {
      "anonymous": false,
      "inputs": [
        {
          "indexed": true,
          "internalType": "address",
          "name": "previousTarget",
          "type": "address"
        },
        {
          "indexed": true,
          "internalType": "address",
          "name": "newTarget",
          "type": "address"
        }
      ],
      "name": "TargetSet",
      "type": "event"
    },
    {
      "inputs": [
        {
          "internalType": "address",
          "name": "preAvatar",
          "type": "address"
        },
        {
          "internalType": "address",
          "name": "avatar",
          "type": "address"
        }
      ],
      "name": "disableAvatar",
      "outputs": [],
      "stateMutability": "nonpayable",
      "type": "function"
    },
    {
      "inputs": [
        {
          "internalType": "address",
          "name": "prevModule",
          "type": "address"
        },
        {
          "internalType": "address",
          "name": "module",
          "type": "address"
        }
      ],
      "name": "disableModule",
      "outputs": [],
      "stateMutability": "nonpayable",
      "type": "function"
    },
    {
      "inputs": [
        {
          "internalType": "address",
          "name": "avatar",
          "type": "address"
        }
      ],
      "name": "enableAvatar",
      "outputs": [],
      "stateMutability": "nonpayable",
      "type": "function"
    },
    {
      "inputs": [
        {
          "internalType": "address",
          "name": "module",
          "type": "address"
        },
        {
          "internalType": "address",
          "name": "avatar",
          "type": "address"
        }
      ],
      "name": "enableModification",
      "outputs": [],
      "stateMutability": "nonpayable",
      "type": "function"
    },
    {
      "inputs": [
        {
          "internalType": "address",
          "name": "module",
          "type": "address"
        }
      ],
      "name": "enableModule",
      "outputs": [],
      "stateMutability": "nonpayable",
      "type": "function"
    },
    {
      "inputs": [
        {
          "internalType": "address",
          "name": "to",
          "type": "address"
        },
        {
          "internalType": "uint256",
          "name": "value",
          "type": "uint256"
        },
        {
          "internalType": "bytes",
          "name": "data",
          "type": "bytes"
        },
        {
          "internalType": "enum Enum.Operation",
          "name": "operation",
          "type": "uint8"
        }
      ],
      "name": "execTransactionFromModule",
      "outputs": [
        {
          "internalType": "bool",
          "name": "success",
          "type": "bool"
        }
      ],
      "stateMutability": "nonpayable",
      "type": "function"
    },
    {
      "inputs": [
        {
          "internalType": "address",
          "name": "to",
          "type": "address"
        },
        {
          "internalType": "uint256",
          "name": "value",
          "type": "uint256"
        },
        {
          "internalType": "bytes",
          "name": "data",
          "type": "bytes"
        },
        {
          "internalType": "enum Enum.Operation",
          "name": "operation",
          "type": "uint8"
        }
      ],
      "name": "execTransactionFromModuleReturnData",
      "outputs": [
        {
          "internalType": "bool",
          "name": "success",
          "type": "bool"
        },
        {
          "internalType": "bytes",
          "name": "returnData",
          "type": "bytes"
        }
      ],
      "stateMutability": "nonpayable",
      "type": "function"
    },
    {
      "inputs": [
        {
          "internalType": "address",
          "name": "start",
          "type": "address"
        },
        {
          "internalType": "uint256",
          "name": "pageSize",
          "type": "uint256"
        }
      ],
      "name": "getAvatarsPaginated",
      "outputs": [
        {
          "internalType": "address[]",
          "name": "array",
          "type": "address[]"
        },
        {
          "internalType": "address",
          "name": "next",
          "type": "address"
        }
      ],
      "stateMutability": "view",
      "type": "function"
    },
    {
      "inputs": [
        {
          "internalType": "address",
          "name": "module",
          "type": "address"
        }
      ],
      "name": "getBudget",
      "outputs": [
        {
          "components": [
            {
              "internalType": "uint256",
              "name": "totalAmount",
              "type": "uint256"
            },
            {
              "internalType": "uint256",
              "name": "amountUsed",
              "type": "uint256"
            },
            {
              "internalType": "uint256",
              "name": "lastReset",
              "type": "uint256"
            },
            {
              "internalType": "uint256",
              "name": "interval",
              "type": "uint256"
            },
            {
              "internalType": "bool",
              "name": "frozen",
              "type": "bool"
            }
          ],
          "internalType": "struct budgetModifier.budget",
          "name": "",
          "type": "tuple"
        }
      ],
      "stateMutability": "view",
      "type": "function"
    },
    {
      "inputs": [],
      "name": "getGuard",
      "outputs": [
        {
          "internalType": "address",
          "name": "_guard",
          "type": "address"
        }
      ],
      "stateMutability": "view",
      "type": "function"
    },
    {
      "inputs": [
        {
          "internalType": "address",
          "name": "start",
          "type": "address"
        },
        {
          "internalType": "uint256",
          "name": "pageSize",
          "type": "uint256"
        }
      ],
      "name": "getModulesPaginated",
      "outputs": [
        {
          "internalType": "address[]",
          "name": "array",
          "type": "address[]"
        },
        {
          "internalType": "address",
          "name": "next",
          "type": "address"
        }
      ],
      "stateMutability": "view",
      "type": "function"
    },
    {
      "inputs": [],
      "name": "guard",
      "outputs": [
        {
          "internalType": "address",
          "name": "",
          "type": "address"
        }
      ],
      "stateMutability": "view",
      "type": "function"
    },
    {
      "inputs": [
        {
          "internalType": "address",
          "name": "avatar",
          "type": "address"
        }
      ],
      "name": "isAvatarEnabled",
      "outputs": [
        {
          "internalType": "bool",
          "name": "",
          "type": "bool"
        }
      ],
      "stateMutability": "view",
      "type": "function"
    },
    {
      "inputs": [
        {
          "internalType": "address",
          "name": "module",
          "type": "address"
        }
      ],
      "name": "isModuleEnabled",
      "outputs": [
        {
          "internalType": "bool",
          "name": "",
          "type": "bool"
        }
      ],
      "stateMutability": "view",
      "type": "function"
    },
    {
      "inputs": [
        {
          "internalType": "address",
          "name": "",
          "type": "address"
        }
      ],
      "name": "moduleToAvatar",
      "outputs": [
        {
          "internalType": "address",
          "name": "",
          "type": "address"
        }
      ],
      "stateMutability": "view",
      "type": "function"
    },
    {
      "inputs": [],
      "name": "owner",
      "outputs": [
        {
          "internalType": "address",
          "name": "",
          "type": "address"
        }
      ],
      "stateMutability": "view",
      "type": "function"
    },
    {
      "inputs": [],
      "name": "renounceOwnership",
      "outputs": [],
      "stateMutability": "nonpayable",
      "type": "function"
    },
    {
      "inputs": [
        {
          "internalType": "address",
          "name": "module",
          "type": "address"
        },
        {
          "internalType": "uint256",
          "name": "_totalAmount",
          "type": "uint256"
        },
        {
          "internalType": "uint256",
          "name": "_interval",
          "type": "uint256"
        }
      ],
      "name": "setBudget",
      "outputs": [],
      "stateMutability": "nonpayable",
      "type": "function"
    },
    {
      "inputs": [
        {
          "internalType": "address",
          "name": "module",
          "type": "address"
        }
      ],
      "name": "setFreeze",
      "outputs": [],
      "stateMutability": "nonpayable",
      "type": "function"
    },
    {
      "inputs": [
        {
          "internalType": "address",
          "name": "_guard",
          "type": "address"
        }
      ],
      "name": "setGuard",
      "outputs": [],
      "stateMutability": "nonpayable",
      "type": "function"
    },
    {
      "inputs": [
        {
          "internalType": "address",
          "name": "target",
          "type": "address"
        },
        {
          "internalType": "address",
          "name": "avatar",
          "type": "address"
        }
      ],
      "name": "setTarget",
      "outputs": [],
      "stateMutability": "nonpayable",
      "type": "function"
    },
    {
      "inputs": [
        {
          "internalType": "bytes",
          "name": "initializeParams",
          "type": "bytes"
        }
      ],
      "name": "setUp",
      "outputs": [],
      "stateMutability": "nonpayable",
      "type": "function"
    },
    {
      "inputs": [
        {
          "internalType": "address",
          "name": "newOwner",
          "type": "address"
        }
      ],
      "name": "transferOwnership",
      "outputs": [],
      "stateMutability": "nonpayable",
      "type": "function"
    }
  ],
  "bytecode": "0x60806040523480156200001157600080fd5b5060606200001f8162000026565b50620003fd565b600054610100900460ff1615808015620000475750600054600160ff909116105b8062000077575062000064306200016d60201b620011171760201c565b15801562000077575060005460ff166001145b620000e05760405162461bcd60e51b815260206004820152602e60248201527f496e697469616c697a61626c653a20636f6e747261637420697320616c72656160448201526d191e481a5b9a5d1a585b1a5e995960921b60648201526084015b60405180910390fd5b6000805460ff19166001179055801562000104576000805461ff0019166101001790555b6200010e6200017c565b62000118620001e4565b62000122620002a8565b801562000169576000805461ff0019169055604051600181527f7f26b83ff96e1f2b6a682f133852f6798a09c465da95921460cefb38474024989060200160405180910390a15b5050565b6001600160a01b03163b151590565b600054610100900460ff16620001d85760405162461bcd60e51b815260206004820152602b60248201526000805160206200248c83398151915260448201526a6e697469616c697a696e6760a81b6064820152608401620000d7565b620001e26200034a565b565b600160005260676020527f6bee784efeb983674392298ab585b22866bedf00ebb0eea949d1e66f3f50e71d546001600160a01b031615620002685760405162461bcd60e51b815260206004820152601b60248201527f6176617461727320616c726561647920696e697469616c697a656400000000006044820152606401620000d7565b6001600081905260676020527f6bee784efeb983674392298ab585b22866bedf00ebb0eea949d1e66f3f50e71d80546001600160a01b0319169091179055565b600160005260666020526000805160206200246c833981519152546001600160a01b0316156200031b5760405162461bcd60e51b815260206004820152601b60248201527f4d6f64756c657320616c726561647920696e697469616c697a656400000000006044820152606401620000d7565b6001600081905260666020526000805160206200246c83398151915280546001600160a01b0319169091179055565b600054610100900460ff16620003a65760405162461bcd60e51b815260206004820152602b60248201526000805160206200248c83398151915260448201526a6e697469616c697a696e6760a81b6064820152608401620000d7565b620001e233603380546001600160a01b038381166001600160a01b0319831681179093556040519116919082907f8be0079c531659141344cd1fd0a4f28419497f9722a3daafe3b4186f6b6457e090600090a35050565b61205f806200040d6000396000f3fe608060405234801561001057600080fd5b506004361061018d5760003560e01c8063a4f9edbf116100e3578063cc2f84521161008c578063e009cfde11610066578063e009cfde14610406578063e19a9dd914610419578063f2fde38b1461042c57600080fd5b8063cc2f8452146103cd578063d9c31c73146103e0578063dd16a008146103f357600080fd5b8063ba7707b2116100bd578063ba7707b214610388578063c2e042f4146103a9578063c9106389146103bc57600080fd5b8063a4f9edbf14610339578063acead0dc1461034c578063b1d49d561461037557600080fd5b8063468721a711610145578063715018a61161011f578063715018a6146102f55780637ceab3b1146102fd5780638da5cb5b1461032857600080fd5b8063468721a7146102ae5780635229073f146102c1578063610b5925146102e257600080fd5b80632d9ad53d116101765780632d9ad53d1461022e5780632de7ae93146102515780633ecf06bd1461029b57600080fd5b806319b7d7bd1461019257806325bccea2146101f2575b600080fd5b6101a56101a0366004611b1b565b61043f565b6040516101e99190600060a0820190508251825260208301516020830152604083015160408301526060830151606083015260808301511515608083015292915050565b60405180910390f35b61022c610200366004611b1b565b6001600160a01b03166000908152606a60205260409020600401805460ff19811660ff90911615179055565b005b61024161023c366004611b1b565b6104d0565b60405190151581526020016101e9565b61022c61025f366004611b3d565b6001600160a01b039092166000908152606a6020526040812091825560018201556003810191909155436002820155600401805460ff19169055565b61022c6102a9366004611b70565b61050b565b6102416102bc366004611c68565b61056d565b6102d46102cf366004611c68565b610689565b6040516101e9929190611d2e565b61022c6102f0366004611b1b565b6106cf565b61022c61080b565b606554610310906001600160a01b031681565b6040516001600160a01b0390911681526020016101e9565b6033546001600160a01b0316610310565b61022c610347366004611d49565b61081f565b61031061035a366004611b1b565b6069602052600090815260409020546001600160a01b031681565b61022c610383366004611b1b565b610951565b61039b610396366004611d7e565b610a97565b6040516101e9929190611da8565b61022c6103b7366004611b70565b610b91565b6065546001600160a01b0316610310565b61039b6103db366004611d7e565b610cb0565b6102416103ee366004611b1b565b610d9c565b61022c610401366004611b70565b610dd4565b61022c610414366004611b70565b610e21565b61022c610427366004611b1b565b610f40565b61022c61043a366004611b1b565b611087565b6104736040518060a00160405280600081526020016000815260200160008152602001600081526020016000151581525090565b506001600160a01b03166000908152606a6020908152604091829020825160a081018452815481526001820154928101929092526002810154928201929092526003820154606082015260049091015460ff161515608082015290565b600060016001600160a01b0383161480159061050557506001600160a01b038281166000908152606660205260409020541615155b92915050565b6001600160a01b0380821660009081526068602052604080822080548685166001600160a01b031982168117909255915191909316929183917f90cc2f570a6eb594b1580ea3e41247d2d73a55281889e86bd4ec2fc29c7e62d69190a3505050565b6000336001148015906105975750336000908152606660205260409020546001600160a01b031615155b6105e85760405162461bcd60e51b815260206004820152600560248201527f475331303400000000000000000000000000000000000000000000000000000060448201526064015b60405180910390fd5b6105f485858585611126565b3360009081526069602052604090205461061d908690869086906001600160a01b031686611137565b905080156106555760405133907f6895c13664aa4f67288b25d7a21d7aaa34916e355fb9b6fae0a139a9085becb890600090a2610681565b60405133907facd2c8702804128fdb0db2bb49f6d127dd0181c13fd45dbfe16de0930e2bd37590600090a25b949350505050565b6000606061069986868686611126565b336000908152606960205260409020546106c2908790879087906001600160a01b03168761137c565b9097909650945050505050565b6001600160a01b038116158015906106f157506001600160a01b038116600114155b6107255760405162461bcd60e51b8152602060048201526005602482015264475331303160d81b60448201526064016105df565b6001600160a01b0381811660009081526066602052604090205416156107755760405162461bcd60e51b815260206004820152600560248201526423a998981960d91b60448201526064016105df565b606660209081527fe34b8b74e1cdcaa1b90aa77af7dd89e496ad9a4ae4a4d4759712101c7da2dce680546001600160a01b03848116600081815260408082208054949095166001600160a01b0319948516179094556001905283549091168117909255519081527fecdf3a3effea5783a3c4c2140e677577666428d44ed9d474a0b3a4c9943f844091015b60405180910390a150565b6108136115ca565b61081d6000611624565b565b600054610100900460ff161580801561083f5750600054600160ff909116105b806108595750303b158015610859575060005460ff166001145b6108cb5760405162461bcd60e51b815260206004820152602e60248201527f496e697469616c697a61626c653a20636f6e747261637420697320616c72656160448201527f647920696e697469616c697a656400000000000000000000000000000000000060648201526084016105df565b6000805460ff1916600117905580156108ee576000805461ff0019166101001790555b6108f6611676565b6108fe6116e9565b6109066117ab565b801561094d576000805461ff0019169055604051600181527f7f26b83ff96e1f2b6a682f133852f6798a09c465da95921460cefb3847402498906020015b60405180910390a15b5050565b6001600160a01b0381161580159061097357506001600160a01b038116600114155b6109a75760405162461bcd60e51b8152602060048201526005602482015264475331303160d81b60448201526064016105df565b6001600160a01b0381811660009081526067602052604090205416156109f75760405162461bcd60e51b815260206004820152600560248201526423a998981960d91b60448201526064016105df565b60676020527f6bee784efeb983674392298ab585b22866bedf00ebb0eea949d1e66f3f50e71d80546001600160a01b038381166000818152604081208054939094166001600160a01b0319938416179093556001909252825416179055610a5e818061050b565b6040516001600160a01b03821681527fdc8509131aac11ac4f5b915e0b24114ac71cf7b256433834e067829bf9db3ad490602001610800565b606060008267ffffffffffffffff811115610ab457610ab4611ba3565b604051908082528060200260200182016040528015610add578160200160208202803683370190505b506001600160a01b0380861660009081526067602052604081205492945091165b6001600160a01b03811615801590610b2057506001600160a01b038116600114155b8015610b2b57508482105b15610b835780848381518110610b4357610b43611e05565b6001600160a01b03928316602091820292909201810191909152918116600090815260679092526040909120541681610b7b81611e31565b925050610afe565b908352919491935090915050565b6001600160a01b03811615801590610bb357506001600160a01b038116600114155b610be75760405162461bcd60e51b8152602060048201526005602482015264475331303160d81b60448201526064016105df565b6001600160a01b03828116600090815260676020526040902054811690821614610c3b5760405162461bcd60e51b8152602060048201526005602482015264475331303360d81b60448201526064016105df565b6001600160a01b038181166000818152606760209081526040808320805488871685528285208054919097166001600160a01b03199182161790965592849052825490941690915591519081527ff958f63a03d52fa6114df75e4f1176335f2a3cef00a6f620f1fbc70ae4b2542b9101610944565b606060008267ffffffffffffffff811115610ccd57610ccd611ba3565b604051908082528060200260200182016040528015610cf6578160200160208202803683370190505b506001600160a01b0380861660009081526066602052604081205492945091165b6001600160a01b03811615801590610d3957506001600160a01b038116600114155b8015610d4457508482105b15610b835780848381518110610d5c57610d5c611e05565b6001600160a01b03928316602091820292909201810191909152918116600090815260669092526040909120541681610d9481611e31565b925050610d17565b600060016001600160a01b038316148015906105055750506001600160a01b0390811660009081526067602052604090205416151590565b610ddd81610d9c565b610dea57610dea81610951565b610df3826106cf565b6001600160a01b03918216600090815260696020526040902080546001600160a01b03191691909216179055565b6001600160a01b03811615801590610e4357506001600160a01b038116600114155b610e775760405162461bcd60e51b8152602060048201526005602482015264475331303160d81b60448201526064016105df565b6001600160a01b03828116600090815260666020526040902054811690821614610ecb5760405162461bcd60e51b8152602060048201526005602482015264475331303360d81b60448201526064016105df565b6001600160a01b038181166000818152606660209081526040808320805488871685528285208054919097166001600160a01b03199182161790965592849052825490941690915591519081527faab4fa2b463f581b2b32cb3b7e3b704b9ce37cc209b5fb4d77e593ace40542769101610944565b610f486115ca565b6001600160a01b03811615611039576040517f01ffc9a70000000000000000000000000000000000000000000000000000000081527fe6d7a83a0000000000000000000000000000000000000000000000000000000060048201526001600160a01b038216906301ffc9a790602401602060405180830381865afa158015610fd4573d6000803e3d6000fd5b505050506040513d601f19601f82011682018060405250810190610ff89190611e5a565b611039576040517fb16ea67e0000000000000000000000000000000000000000000000000000000081526001600160a01b03821660048201526024016105df565b606580546001600160a01b0319166001600160a01b0383169081179091556040519081527f1151116914515bc0891ff9047a6cb32cf902546f83066499bcf8ba33d2353fa290602001610800565b61108f6115ca565b6001600160a01b03811661110b5760405162461bcd60e51b815260206004820152602660248201527f4f776e61626c653a206e6577206f776e657220697320746865207a65726f206160448201527f646472657373000000000000000000000000000000000000000000000000000060648201526084016105df565b61111481611624565b50565b6001600160a01b03163b151590565b61113183838361186d565b50505050565b600061114283610d9c565b6111b45760405162461bcd60e51b815260206004820152602e60248201527f5472616e73616374696f6e2064657374696e6174696f6e20697320756e72656760448201527f697374657265642041766174617200000000000000000000000000000000000060648201526084016105df565b6065546001600160a01b031615611253576065546040805180820182526002815261060f60f31b60208201529051633af85da960e11b81526001600160a01b03909216916375f0bb5291611220918a918a918a9189916000918291829182918291903390600401611ead565b600060405180830381600087803b15801561123a57600080fd5b505af115801561124e573d6000803e3d6000fd5b505050505b6001600160a01b03808416600090815260686020526040908190205490517f468721a700000000000000000000000000000000000000000000000000000000815291169063468721a7906112b1908990899089908890600401611f39565b6020604051808303816000875af11580156112d0573d6000803e3d6000fd5b505050506040513d601f19601f820116820180604052508101906112f49190611e5a565b6065549091506001600160a01b03161561137357606554604051631264e26d60e31b815261060f60f31b600482015282151560248201526001600160a01b0390911690639327136890604401600060405180830381600087803b15801561135a57600080fd5b505af115801561136e573d6000803e3d6000fd5b505050505b95945050505050565b6000606061138984610d9c565b6113fb5760405162461bcd60e51b815260206004820152602e60248201527f5472616e73616374696f6e2064657374696e6174696f6e20697320756e72656760448201527f697374657265642041766174617200000000000000000000000000000000000060648201526084016105df565b6065546001600160a01b03161561149a576065546040805180820182526002815261060f60f31b60208201529051633af85da960e11b81526001600160a01b03909216916375f0bb5291611467918b918b918b918a916000918291829182918291903390600401611ead565b600060405180830381600087803b15801561148157600080fd5b505af1158015611495573d6000803e3d6000fd5b505050505b6001600160a01b03808516600090815260686020526040908190205490517f5229073f000000000000000000000000000000000000000000000000000000008152911690635229073f906114f8908a908a908a908990600401611f39565b6000604051808303816000875af1158015611517573d6000803e3d6000fd5b505050506040513d6000823e601f3d908101601f1916820160405261153f9190810190611f70565b60655491935091506001600160a01b0316156115c057606554604051631264e26d60e31b815261060f60f31b600482015283151560248201526001600160a01b0390911690639327136890604401600060405180830381600087803b1580156115a757600080fd5b505af11580156115bb573d6000803e3d6000fd5b505050505b9550959350505050565b6033546001600160a01b0316331461081d5760405162461bcd60e51b815260206004820181905260248201527f4f776e61626c653a2063616c6c6572206973206e6f7420746865206f776e657260448201526064016105df565b603380546001600160a01b038381166001600160a01b0319831681179093556040519116919082907f8be0079c531659141344cd1fd0a4f28419497f9722a3daafe3b4186f6b6457e090600090a35050565b600054610100900460ff166116e15760405162461bcd60e51b815260206004820152602b60248201527f496e697469616c697a61626c653a20636f6e7472616374206973206e6f74206960448201526a6e697469616c697a696e6760a81b60648201526084016105df565b61081d611a8b565b600160005260676020527f6bee784efeb983674392298ab585b22866bedf00ebb0eea949d1e66f3f50e71d546001600160a01b03161561176b5760405162461bcd60e51b815260206004820152601b60248201527f6176617461727320616c726561647920696e697469616c697a6564000000000060448201526064016105df565b6001600081905260676020527f6bee784efeb983674392298ab585b22866bedf00ebb0eea949d1e66f3f50e71d80546001600160a01b0319169091179055565b600160005260666020527fe34b8b74e1cdcaa1b90aa77af7dd89e496ad9a4ae4a4d4759712101c7da2dce6546001600160a01b03161561182d5760405162461bcd60e51b815260206004820152601b60248201527f4d6f64756c657320616c726561647920696e697469616c697a6564000000000060448201526064016105df565b6001600081905260666020527fe34b8b74e1cdcaa1b90aa77af7dd89e496ad9a4ae4a4d4759712101c7da2dce680546001600160a01b0319169091179055565b600081600181111561188157611881611e75565b146118ce5760405162461bcd60e51b815260206004820152601160248201527f496e76616c6964206f7065726174696f6e00000000000000000000000000000060448201526064016105df565b815415600114806119215760405162461bcd60e51b815260206004820152601a60248201527f496e76616c69642066756e6374696f6e207369676e617475726500000000000060448201526064016105df565b336000908152606a602052604090206004015460ff16156119845760405162461bcd60e51b815260206004820152601060248201527f4275646765742069732066726f7a656e0000000000000000000000000000000060448201526064016105df565b336000908152606a602052604090206003810154600290910154439182916119ac9190611ffa565b111580156119cb5750336000908152606a602052604090206003015415155b156119ee57336000908152606a6020526040812060018101919091556002018190555b336000908152606a6020526040902060018101549054611a0e9190612012565b851115611a5d5760405162461bcd60e51b815260206004820152601660248201527f526571756573742065786365656473206275646765740000000000000000000060448201526064016105df565b336000908152606a602052604081206001018054879290611a7f908490611ffa565b90915550505050505050565b600054610100900460ff16611af65760405162461bcd60e51b815260206004820152602b60248201527f496e697469616c697a61626c653a20636f6e7472616374206973206e6f74206960448201526a6e697469616c697a696e6760a81b60648201526084016105df565b61081d33611624565b80356001600160a01b0381168114611b1657600080fd5b919050565b600060208284031215611b2d57600080fd5b611b3682611aff565b9392505050565b600080600060608486031215611b5257600080fd5b611b5b84611aff565b95602085013595506040909401359392505050565b60008060408385031215611b8357600080fd5b611b8c83611aff565b9150611b9a60208401611aff565b90509250929050565b634e487b7160e01b600052604160045260246000fd5b604051601f8201601f1916810167ffffffffffffffff81118282101715611be257611be2611ba3565b604052919050565b600067ffffffffffffffff821115611c0457611c04611ba3565b50601f01601f191660200190565b600082601f830112611c2357600080fd5b8135611c36611c3182611bea565b611bb9565b818152846020838601011115611c4b57600080fd5b816020850160208301376000918101602001919091529392505050565b60008060008060808587031215611c7e57600080fd5b611c8785611aff565b935060208501359250604085013567ffffffffffffffff811115611caa57600080fd5b611cb687828801611c12565b925050606085013560028110611ccb57600080fd5b939692955090935050565b60005b83811015611cf1578181015183820152602001611cd9565b838111156111315750506000910152565b60008151808452611d1a816020860160208601611cd6565b601f01601f19169290920160200192915050565b82151581526040602082015260006106816040830184611d02565b600060208284031215611d5b57600080fd5b813567ffffffffffffffff811115611d7257600080fd5b61068184828501611c12565b60008060408385031215611d9157600080fd5b611d9a83611aff565b946020939093013593505050565b604080825283519082018190526000906020906060840190828701845b82811015611dea5781516001600160a01b031684529284019290840190600101611dc5565b5050506001600160a01b039490941692019190915250919050565b634e487b7160e01b600052603260045260246000fd5b634e487b7160e01b600052601160045260246000fd5b600060018201611e4357611e43611e1b565b5060010190565b80518015158114611b1657600080fd5b600060208284031215611e6c57600080fd5b611b3682611e4a565b634e487b7160e01b600052602160045260246000fd5b60028110611ea957634e487b7160e01b600052602160045260246000fd5b9052565b60006101606001600160a01b03808f1684528d6020850152816040850152611ed78285018e611d02565b9150611ee6606085018d611e8b565b8a60808501528960a08501528860c085015280881660e0850152808716610100850152838203610120850152611f1c8287611d02565b925080851661014085015250509c9b505050505050505050505050565b6001600160a01b0385168152836020820152608060408201526000611f616080830185611d02565b90506113736060830184611e8b565b60008060408385031215611f8357600080fd5b611f8c83611e4a565b9150602083015167ffffffffffffffff811115611fa857600080fd5b8301601f81018513611fb957600080fd5b8051611fc7611c3182611bea565b818152866020838501011115611fdc57600080fd5b611fed826020830160208601611cd6565b8093505050509250929050565b6000821982111561200d5761200d611e1b565b500190565b60008282101561202457612024611e1b565b50039056fea2646970667358221220a872d8ffea621422dd44949a77b98995ad615e17accd7ea23051cb05d87f58c064736f6c634300080f0033e34b8b74e1cdcaa1b90aa77af7dd89e496ad9a4ae4a4d4759712101c7da2dce6496e697469616c697a61626c653a20636f6e7472616374206973206e6f742069",
  "linkReferences": {},
  "deployedLinkReferences": {}
}