{
  "_format": "hh-sol-artifact-1",
  "contractName": "PermissionRegistry",
  "sourceName": "contracts/roles/PermissionRegistry.sol",
  "abi": [
    {
      "inputs": [],
      "stateMutability": "nonpayable",
      "type": "constructor"
    },
    {
      "anonymous": false,
      "inputs": [
        {
          "indexed": true,
          "internalType": "address",
          "name": "owner",
          "type": "address"
        },
        {
          "indexed": true,
          "internalType": "address",
          "name": "approved",
          "type": "address"
        },
        {
          "indexed": true,
          "internalType": "uint256",
          "name": "tokenId",
          "type": "uint256"
        }
      ],
      "name": "Approval",
      "type": "event"
    },
    {
      "anonymous": false,
      "inputs": [
        {
          "indexed": true,
          "internalType": "address",
          "name": "owner",
          "type": "address"
        },
        {
          "indexed": true,
          "internalType": "address",
          "name": "operator",
          "type": "address"
        },
        {
          "indexed": false,
          "internalType": "bool",
          "name": "approved",
          "type": "bool"
        }
      ],
      "name": "ApprovalForAll",
      "type": "event"
    },
    {
      "anonymous": false,
      "inputs": [
        {
          "indexed": false,
          "internalType": "address",
          "name": "module",
          "type": "address"
        }
      ],
      "name": "DisabledModule",
      "type": "event"
    },
    {
      "anonymous": false,
      "inputs": [
        {
          "indexed": false,
          "internalType": "address",
          "name": "module",
          "type": "address"
        }
      ],
      "name": "EnabledModule",
      "type": "event"
    },
    {
      "anonymous": false,
      "inputs": [
        {
          "indexed": true,
          "internalType": "address",
          "name": "module",
          "type": "address"
        }
      ],
      "name": "ExecutionFromModuleFailure",
      "type": "event"
    },
    {
      "anonymous": false,
      "inputs": [
        {
          "indexed": true,
          "internalType": "address",
          "name": "module",
          "type": "address"
        }
      ],
      "name": "ExecutionFromModuleSuccess",
      "type": "event"
    },
    {
      "anonymous": false,
      "inputs": [
        {
          "indexed": true,
          "internalType": "address",
          "name": "authority",
          "type": "address"
        }
      ],
      "name": "LogSetAuthority",
      "type": "event"
    },
    {
      "anonymous": false,
      "inputs": [
        {
          "indexed": true,
          "internalType": "address",
          "name": "owner",
          "type": "address"
        }
      ],
      "name": "LogSetOwner",
      "type": "event"
    },
    {
      "anonymous": false,
      "inputs": [
        {
          "indexed": true,
          "internalType": "address",
          "name": "from",
          "type": "address"
        },
        {
          "indexed": true,
          "internalType": "address",
          "name": "to",
          "type": "address"
        },
        {
          "indexed": true,
          "internalType": "uint256",
          "name": "tokenId",
          "type": "uint256"
        }
      ],
      "name": "Transfer",
      "type": "event"
    },
    {
      "inputs": [
        {
          "internalType": "address",
          "name": "to",
          "type": "address"
        },
        {
          "internalType": "uint256",
          "name": "tokenId",
          "type": "uint256"
        }
      ],
      "name": "approve",
      "outputs": [],
      "stateMutability": "nonpayable",
      "type": "function"
    },
    {
      "inputs": [],
      "name": "authority",
      "outputs": [
        {
          "internalType": "contract DSAuthority",
          "name": "",
          "type": "address"
        }
      ],
      "stateMutability": "view",
      "type": "function"
    },
    {
      "inputs": [
        {
          "internalType": "address",
          "name": "owner",
          "type": "address"
        }
      ],
      "name": "balanceOf",
      "outputs": [
        {
          "internalType": "uint256",
          "name": "",
          "type": "uint256"
        }
      ],
      "stateMutability": "view",
      "type": "function"
    },
    {
      "inputs": [
        {
          "internalType": "uint256",
          "name": "tokenId",
          "type": "uint256"
        }
      ],
      "name": "burn",
      "outputs": [],
      "stateMutability": "nonpayable",
      "type": "function"
    },
    {
      "inputs": [
        {
          "internalType": "address",
          "name": "to",
          "type": "address"
        },
        {
          "internalType": "uint8",
          "name": "role",
          "type": "uint8"
        }
      ],
      "name": "burn",
      "outputs": [],
      "stateMutability": "nonpayable",
      "type": "function"
    },
    {
      "inputs": [
        {
          "internalType": "address",
          "name": "caller",
          "type": "address"
        },
        {
          "internalType": "address",
          "name": "code",
          "type": "address"
        },
        {
          "internalType": "bytes4",
          "name": "sig",
          "type": "bytes4"
        }
      ],
      "name": "canCall",
      "outputs": [
        {
          "internalType": "bool",
          "name": "",
          "type": "bool"
        }
      ],
      "stateMutability": "view",
      "type": "function"
    },
    {
      "inputs": [
        {
          "internalType": "address",
          "name": "prevModule",
          "type": "address"
        },
        {
          "internalType": "address",
          "name": "module",
          "type": "address"
        }
      ],
      "name": "disableModule",
      "outputs": [],
      "stateMutability": "nonpayable",
      "type": "function"
    },
    {
      "inputs": [
        {
          "internalType": "address",
          "name": "module",
          "type": "address"
        }
      ],
      "name": "enableModule",
      "outputs": [],
      "stateMutability": "nonpayable",
      "type": "function"
    },
    {
      "inputs": [
        {
          "internalType": "address",
          "name": "to",
          "type": "address"
        },
        {
          "internalType": "uint256",
          "name": "value",
          "type": "uint256"
        },
        {
          "internalType": "bytes",
          "name": "data",
          "type": "bytes"
        },
        {
          "internalType": "enum Enum.Operation",
          "name": "operation",
          "type": "uint8"
        }
      ],
      "name": "execTransactionFromModule",
      "outputs": [
        {
          "internalType": "bool",
          "name": "success",
          "type": "bool"
        }
      ],
      "stateMutability": "nonpayable",
      "type": "function"
    },
    {
      "inputs": [
        {
          "internalType": "address",
          "name": "to",
          "type": "address"
        },
        {
          "internalType": "uint256",
          "name": "value",
          "type": "uint256"
        },
        {
          "internalType": "bytes",
          "name": "data",
          "type": "bytes"
        },
        {
          "internalType": "enum Enum.Operation",
          "name": "operation",
          "type": "uint8"
        }
      ],
      "name": "execTransactionFromModuleReturnData",
      "outputs": [
        {
          "internalType": "bool",
          "name": "success",
          "type": "bool"
        },
        {
          "internalType": "bytes",
          "name": "returnData",
          "type": "bytes"
        }
      ],
      "stateMutability": "nonpayable",
      "type": "function"
    },
    {
      "inputs": [
        {
          "internalType": "uint256",
          "name": "tokenId",
          "type": "uint256"
        }
      ],
      "name": "getApproved",
      "outputs": [
        {
          "internalType": "address",
          "name": "",
          "type": "address"
        }
      ],
      "stateMutability": "view",
      "type": "function"
    },
    {
      "inputs": [
        {
          "internalType": "address",
          "name": "code",
          "type": "address"
        },
        {
          "internalType": "bytes4",
          "name": "sig",
          "type": "bytes4"
        }
      ],
      "name": "getCapabilityRoles",
      "outputs": [
        {
          "internalType": "bytes32",
          "name": "",
          "type": "bytes32"
        }
      ],
      "stateMutability": "view",
      "type": "function"
    },
    {
      "inputs": [
        {
          "internalType": "address",
          "name": "start",
          "type": "address"
        },
        {
          "internalType": "uint256",
          "name": "pageSize",
          "type": "uint256"
        }
      ],
      "name": "getModulesPaginated",
      "outputs": [
        {
          "internalType": "address[]",
          "name": "array",
          "type": "address[]"
        },
        {
          "internalType": "address",
          "name": "next",
          "type": "address"
        }
      ],
      "stateMutability": "view",
      "type": "function"
    },
    {
      "inputs": [
        {
          "internalType": "address",
          "name": "owner",
          "type": "address"
        },
        {
          "internalType": "uint8",
          "name": "role",
          "type": "uint8"
        }
      ],
      "name": "getNFT",
      "outputs": [
        {
          "internalType": "string",
          "name": "",
          "type": "string"
        }
      ],
      "stateMutability": "view",
      "type": "function"
    },
    {
      "inputs": [
        {
          "internalType": "address",
          "name": "owner",
          "type": "address"
        },
        {
          "internalType": "uint8",
          "name": "role",
          "type": "uint8"
        }
      ],
      "name": "getTokenID",
      "outputs": [
        {
          "internalType": "uint256",
          "name": "tokenId",
          "type": "uint256"
        }
      ],
      "stateMutability": "view",
      "type": "function"
    },
    {
      "inputs": [
        {
          "internalType": "address",
          "name": "who",
          "type": "address"
        }
      ],
      "name": "getUserRoles",
      "outputs": [
        {
          "internalType": "bytes32",
          "name": "",
          "type": "bytes32"
        }
      ],
      "stateMutability": "view",
      "type": "function"
    },
    {
      "inputs": [
        {
          "internalType": "address",
          "name": "who",
          "type": "address"
        },
        {
          "internalType": "uint8",
          "name": "role",
          "type": "uint8"
        }
      ],
      "name": "hasUserRole",
      "outputs": [
        {
          "internalType": "bool",
          "name": "",
          "type": "bool"
        }
      ],
      "stateMutability": "view",
      "type": "function"
    },
    {
      "inputs": [
        {
          "internalType": "address",
          "name": "owner",
          "type": "address"
        },
        {
          "internalType": "address",
          "name": "operator",
          "type": "address"
        }
      ],
      "name": "isApprovedForAll",
      "outputs": [
        {
          "internalType": "bool",
          "name": "",
          "type": "bool"
        }
      ],
      "stateMutability": "view",
      "type": "function"
    },
    {
      "inputs": [
        {
          "internalType": "address",
          "name": "code",
          "type": "address"
        },
        {
          "internalType": "bytes4",
          "name": "sig",
          "type": "bytes4"
        }
      ],
      "name": "isCapabilityPublic",
      "outputs": [
        {
          "internalType": "bool",
          "name": "",
          "type": "bool"
        }
      ],
      "stateMutability": "view",
      "type": "function"
    },
    {
      "inputs": [
        {
          "internalType": "address",
          "name": "module",
          "type": "address"
        }
      ],
      "name": "isModuleEnabled",
      "outputs": [
        {
          "internalType": "bool",
          "name": "",
          "type": "bool"
        }
      ],
      "stateMutability": "view",
      "type": "function"
    },
    {
      "inputs": [
        {
          "internalType": "address",
          "name": "who",
          "type": "address"
        }
      ],
      "name": "isUserRoot",
      "outputs": [
        {
          "internalType": "bool",
          "name": "",
          "type": "bool"
        }
      ],
      "stateMutability": "view",
      "type": "function"
    },
    {
      "inputs": [],
      "name": "name",
      "outputs": [
        {
          "internalType": "string",
          "name": "",
          "type": "string"
        }
      ],
      "stateMutability": "view",
      "type": "function"
    },
    {
      "inputs": [],
      "name": "owner",
      "outputs": [
        {
          "internalType": "address",
          "name": "",
          "type": "address"
        }
      ],
      "stateMutability": "view",
      "type": "function"
    },
    {
      "inputs": [
        {
          "internalType": "uint256",
          "name": "tokenId",
          "type": "uint256"
        }
      ],
      "name": "ownerOf",
      "outputs": [
        {
          "internalType": "address",
          "name": "",
          "type": "address"
        }
      ],
      "stateMutability": "view",
      "type": "function"
    },
    {
      "inputs": [
        {
          "internalType": "address",
          "name": "from",
          "type": "address"
        },
        {
          "internalType": "address",
          "name": "to",
          "type": "address"
        },
        {
          "internalType": "uint256",
          "name": "tokenId",
          "type": "uint256"
        }
      ],
      "name": "safeTransferFrom",
      "outputs": [],
      "stateMutability": "nonpayable",
      "type": "function"
    },
    {
      "inputs": [
        {
          "internalType": "address",
          "name": "from",
          "type": "address"
        },
        {
          "internalType": "address",
          "name": "to",
          "type": "address"
        },
        {
          "internalType": "uint256",
          "name": "tokenId",
          "type": "uint256"
        },
        {
          "internalType": "bytes",
          "name": "data",
          "type": "bytes"
        }
      ],
      "name": "safeTransferFrom",
      "outputs": [],
      "stateMutability": "nonpayable",
      "type": "function"
    },
    {
      "inputs": [
        {
          "internalType": "address",
          "name": "operator",
          "type": "address"
        },
        {
          "internalType": "bool",
          "name": "approved",
          "type": "bool"
        }
      ],
      "name": "setApprovalForAll",
      "outputs": [],
      "stateMutability": "nonpayable",
      "type": "function"
    },
    {
      "inputs": [
        {
          "internalType": "contract DSAuthority",
          "name": "authority_",
          "type": "address"
        }
      ],
      "name": "setAuthority",
      "outputs": [],
      "stateMutability": "nonpayable",
      "type": "function"
    },
    {
      "inputs": [
        {
          "internalType": "uint8",
          "name": "role",
          "type": "uint8"
        },
        {
          "internalType": "string",
          "name": "url",
          "type": "string"
        }
      ],
      "name": "setLink",
      "outputs": [],
      "stateMutability": "nonpayable",
      "type": "function"
    },
    {
      "inputs": [
        {
          "internalType": "address",
          "name": "owner_",
          "type": "address"
        }
      ],
      "name": "setOwner",
      "outputs": [],
      "stateMutability": "nonpayable",
      "type": "function"
    },
    {
      "inputs": [
        {
          "internalType": "address",
          "name": "code",
          "type": "address"
        },
        {
          "internalType": "bytes4",
          "name": "sig",
          "type": "bytes4"
        },
        {
          "internalType": "bool",
          "name": "enabled",
          "type": "bool"
        }
      ],
      "name": "setPublicCapability",
      "outputs": [],
      "stateMutability": "nonpayable",
      "type": "function"
    },
    {
      "inputs": [
        {
          "internalType": "uint8",
          "name": "role",
          "type": "uint8"
        },
        {
          "internalType": "address",
          "name": "code",
          "type": "address"
        },
        {
          "internalType": "bytes4",
          "name": "sig",
          "type": "bytes4"
        },
        {
          "internalType": "bool",
          "name": "enabled",
          "type": "bool"
        }
      ],
      "name": "setRoleCapability",
      "outputs": [],
      "stateMutability": "nonpayable",
      "type": "function"
    },
    {
      "inputs": [
        {
          "internalType": "address",
          "name": "who",
          "type": "address"
        },
        {
          "internalType": "bool",
          "name": "enabled",
          "type": "bool"
        }
      ],
      "name": "setRootUser",
      "outputs": [],
      "stateMutability": "nonpayable",
      "type": "function"
    },
    {
      "inputs": [
        {
          "internalType": "address",
          "name": "who",
          "type": "address"
        },
        {
          "internalType": "uint8",
          "name": "role",
          "type": "uint8"
        },
        {
          "internalType": "bool",
          "name": "enabled",
          "type": "bool"
        }
      ],
      "name": "setUserRole",
      "outputs": [],
      "stateMutability": "nonpayable",
      "type": "function"
    },
    {
      "inputs": [
        {
          "internalType": "bytes4",
          "name": "interfaceId",
          "type": "bytes4"
        }
      ],
      "name": "supportsInterface",
      "outputs": [
        {
          "internalType": "bool",
          "name": "",
          "type": "bool"
        }
      ],
      "stateMutability": "view",
      "type": "function"
    },
    {
      "inputs": [],
      "name": "symbol",
      "outputs": [
        {
          "internalType": "string",
          "name": "",
          "type": "string"
        }
      ],
      "stateMutability": "view",
      "type": "function"
    },
    {
      "inputs": [
        {
          "internalType": "uint256",
          "name": "tokenId",
          "type": "uint256"
        }
      ],
      "name": "tokenURI",
      "outputs": [
        {
          "internalType": "string",
          "name": "",
          "type": "string"
        }
      ],
      "stateMutability": "view",
      "type": "function"
    },
    {
      "inputs": [
        {
          "internalType": "address",
          "name": "from",
          "type": "address"
        },
        {
          "internalType": "address",
          "name": "to",
          "type": "address"
        },
        {
          "internalType": "uint256",
          "name": "tokenId",
          "type": "uint256"
        }
      ],
      "name": "transferFrom",
      "outputs": [],
      "stateMutability": "nonpayable",
      "type": "function"
    }
  ],
  "bytecode": "0x60806040526103e8600d553480156200001757600080fd5b50604080518082018252601081526f476f7665726e616e636520526f6c657360801b602080830191909152825180840184526006815265474f56524c5360d01b91810191909152600180546001600160a01b031916339081179091559251919290917fce241d7ca1f669fee44b6fc00b8eba2df3bb514eed0f6f668f8f89096e81ed9490600090a26006620000ad83826200021a565b506007620000bc82826200021a565b50620000ca915050620000d0565b620002e6565b6001600052600c60205260008051602062002f21833981519152546001600160a01b031615620001465760405162461bcd60e51b815260206004820152601b60248201527f4d6f64756c657320616c726561647920696e697469616c697a65640000000000604482015260640160405180910390fd5b60016000819052600c60205260008051602062002f2183398151915280546001600160a01b0319169091179055565b634e487b7160e01b600052604160045260246000fd5b600181811c90821680620001a057607f821691505b602082108103620001c157634e487b7160e01b600052602260045260246000fd5b50919050565b601f8211156200021557600081815260208120601f850160051c81016020861015620001f05750805b601f850160051c820191505b818110156200021157828155600101620001fc565b5050505b505050565b81516001600160401b0381111562000236576200023662000175565b6200024e816200024784546200018b565b84620001c7565b602080601f8311600181146200028657600084156200026d5750858301515b600019600386901b1c1916600185901b17855562000211565b600085815260208120601f198616915b82811015620002b75788860151825594840194600190910190840162000296565b5085821015620002d65787850151600019600388901b60f8161c191681555b5050505050600190811b01905550565b612c2b80620002f66000396000f3fe608060405234801561001057600080fd5b50600436106102925760003560e01c806370a0823111610160578063b89d3bb1116100d8578063d381ba7c1161008c578063e2bab3a911610071578063e2bab3a914610652578063e985e9c514610665578063fbf80773146106a157600080fd5b8063d381ba7c1461062c578063e009cfde1461063f57600080fd5b8063c6b0263e116100bd578063c6b0263e146105e5578063c87b56dd146105f8578063cc2f84521461060b57600080fd5b8063b89d3bb1146105bf578063bf7e214f146105d257600080fd5b806395d89b411161012f578063a22cb46511610114578063a22cb46514610586578063b700961314610599578063b88d4fde146105ac57600080fd5b806395d89b411461056b578063a078f7371461057357600080fd5b806370a082311461051f5780637a9e5e4b146105325780637d40583d146105455780638da5cb5b1461055857600080fd5b80632d9ad53d1161020e5780635229073f116101c25780636352211e116101a75780636352211e146104e657806367aff484146104f9578063690770271461050c57600080fd5b80635229073f146104b2578063610b5925146104d357600080fd5b806342842e0e116101f357806342842e0e1461047957806342966c681461048c578063468721a71461049f57600080fd5b80632d9ad53d146104215780632f47571f1461043457600080fd5b8063095ea7b311610265578063181fa1c01161024a578063181fa1c01461035e57806323b872dd146103cc57806327538e90146103df57600080fd5b8063095ea7b31461033657806313af40351461034b57600080fd5b806301ffc9a71461029757806306a36aee146102bf57806306fdde03146102f6578063081812fc1461030b575b600080fd5b6102aa6102a5366004612316565b6106cd565b60405190151581526020015b60405180910390f35b6102e86102cd366004612348565b6001600160a01b031660009081526003602052604090205490565b6040519081526020016102b6565b6102fe61076a565b6040516102b691906123b2565b61031e6103193660046123c5565b6107fc565b6040516001600160a01b0390911681526020016102b6565b6103496103443660046123de565b610823565b005b610349610359366004612348565b610959565b6102e861036c366004612420565b6040805160609390931b6bffffffffffffffffffffffff191660208085019190915260f89290921b6001600160f81b031916603484015280516015818503018152603590930181528251928201929092206000908152600f909152205490565b6103496103da366004612455565b6109fc565b6102e86103ed366004612496565b6001600160a01b03821660009081526004602090815260408083206001600160e01b03198516845290915290205492915050565b6102aa61042f366004612348565b610a75565b6102aa610442366004612496565b6001600160a01b03821660009081526005602090815260408083206001600160e01b03198516845290915290205460ff1692915050565b610349610487366004612455565b610aad565b61034961049a3660046123c5565b610ac8565b6102aa6104ad36600461257b565b610b40565b6104c56104c036600461257b565b610c2f565b6040516102b69291906125eb565b6103496104e1366004612348565b610c65565b61031e6104f43660046123c5565b610db8565b610349610507366004612614565b610e1d565b61034961051a36600461265d565b610efc565b6102e861052d366004612348565b610f18565b610349610540366004612348565b610fb2565b6103496105533660046126bf565b611053565b60015461031e906001600160a01b031681565b6102fe611167565b6102aa610581366004612420565b611176565b61034961059436600461270e565b6111ad565b6102aa6105a736600461273c565b6111bc565b6103496105ba36600461277c565b611265565b6103496105cd366004612420565b6112e4565b60005461031e906001600160a01b031681565b6103496105f33660046127e8565b61135f565b6102fe6106063660046123c5565b6113f9565b61061e6106193660046123de565b6114b9565b6040516102b6929190612818565b61034961063a36600461270e565b6115b3565b61034961064d366004612875565b611637565b6102fe610660366004612420565b611775565b6102aa610673366004612875565b6001600160a01b039182166000908152600b6020908152604080832093909416825291909152205460ff1690565b6102aa6106af366004612348565b6001600160a01b031660009081526002602052604090205460ff1690565b60006001600160e01b031982167f80ac58cd00000000000000000000000000000000000000000000000000000000148061073057506001600160e01b031982167f5b5e139f00000000000000000000000000000000000000000000000000000000145b8061076457507f01ffc9a7000000000000000000000000000000000000000000000000000000006001600160e01b03198316145b92915050565b606060068054610779906128a3565b80601f01602080910402602001604051908101604052809291908181526020018280546107a5906128a3565b80156107f25780601f106107c7576101008083540402835291602001916107f2565b820191906000526020600020905b8154815290600101906020018083116107d557829003601f168201915b5050505050905090565b600061080782611896565b506000908152600a60205260409020546001600160a01b031690565b600061082e82610db8565b9050806001600160a01b0316836001600160a01b0316036108bc5760405162461bcd60e51b815260206004820152602160248201527f4552433732313a20617070726f76616c20746f2063757272656e74206f776e6560448201527f720000000000000000000000000000000000000000000000000000000000000060648201526084015b60405180910390fd5b336001600160a01b03821614806108d857506108d88133610673565b61094a5760405162461bcd60e51b815260206004820152603e60248201527f4552433732313a20617070726f76652063616c6c6572206973206e6f7420746f60448201527f6b656e206f776e6572206e6f7220617070726f76656420666f7220616c6c000060648201526084016108b3565b61095483836118fa565b505050565b61096f336000356001600160e01b031916611968565b6109b25760405162461bcd60e51b8152602060048201526014602482015273191ccb585d5d1a0b5d5b985d5d1a1bdc9a5e995960621b60448201526064016108b3565b600180546001600160a01b0319166001600160a01b0383169081179091556040517fce241d7ca1f669fee44b6fc00b8eba2df3bb514eed0f6f668f8f89096e81ed9490600090a250565b610a07335b82611a5c565b610a6a5760405162461bcd60e51b815260206004820152602e60248201527f4552433732313a2063616c6c6572206973206e6f7420746f6b656e206f776e6560448201526d1c881b9bdc88185c1c1c9bdd995960921b60648201526084016108b3565b610954838383611ada565b600060016001600160a01b038316148015906107645750506001600160a01b039081166000908152600c602052604090205416151590565b61095483838360405180602001604052806000815250611265565b610ad133610a01565b610b345760405162461bcd60e51b815260206004820152602e60248201527f4552433732313a2063616c6c6572206973206e6f7420746f6b656e206f776e6560448201526d1c881b9bdc88185c1c1c9bdd995960921b60648201526084016108b3565b610b3d81611cb2565b50565b600033600114801590610b6a5750336000908152600c60205260409020546001600160a01b031615155b610bb65760405162461bcd60e51b815260206004820152600560248201527f475331303400000000000000000000000000000000000000000000000000000060448201526064016108b3565b610bc3858585855a611d59565b90508015610bfb5760405133907f6895c13664aa4f67288b25d7a21d7aaa34916e355fb9b6fae0a139a9085becb890600090a2610c27565b60405133907facd2c8702804128fdb0db2bb49f6d127dd0181c13fd45dbfe16de0930e2bd37590600090a25b949350505050565b60006060610c3f86868686610b40565b915060405160203d0181016040523d81523d6000602083013e8091505094509492505050565b6001600160a01b03811615801590610c8757506001600160a01b038116600114155b610cbb5760405162461bcd60e51b8152602060048201526005602482015264475331303160d81b60448201526064016108b3565b6001600160a01b038181166000908152600c60205260409020541615610d235760405162461bcd60e51b815260206004820152600560248201527f475331303200000000000000000000000000000000000000000000000000000060448201526064016108b3565b600c60209081527fd421a5181c571bba3f01190c922c3b2a896fc1d84e86c9f17ac10e67ebef8b5c80546001600160a01b03848116600081815260408082208054949095166001600160a01b0319948516179094556001905283549091168117909255519081527fecdf3a3effea5783a3c4c2140e677577666428d44ed9d474a0b3a4c9943f8440910160405180910390a150565b6000818152600860205260408120546001600160a01b0316806107645760405162461bcd60e51b815260206004820152601860248201527f4552433732313a20696e76616c696420746f6b656e204944000000000000000060448201526064016108b3565b610e33336000356001600160e01b031916611968565b610e765760405162461bcd60e51b8152602060048201526014602482015273191ccb585d5d1a0b5d5b985d5d1a1bdc9a5e995960621b60448201526064016108b3565b610e81838383611da0565b6001600160a01b03831660009081526003602052604081205490610ea960ff851660026129d7565b90508215610ed3576001600160a01b03851660009081526003602052604090208282179055610ef5565b6001600160a01b03851660009081526003602052604090206000198218831690555b5050505050565b60ff82166000908152600e602052604090206109548282612a29565b60006001600160a01b038216610f965760405162461bcd60e51b815260206004820152602960248201527f4552433732313a2061646472657373207a65726f206973206e6f74206120766160448201527f6c6964206f776e6572000000000000000000000000000000000000000000000060648201526084016108b3565b506001600160a01b031660009081526009602052604090205490565b610fc8336000356001600160e01b031916611968565b61100b5760405162461bcd60e51b8152602060048201526014602482015273191ccb585d5d1a0b5d5b985d5d1a1bdc9a5e995960621b60448201526064016108b3565b600080546001600160a01b0319166001600160a01b038316908117825560405190917f1abebea81bfa2637f28358c371278fb15ede7ea8dd28d2e03b112ff6d936ada491a250565b611069336000356001600160e01b031916611968565b6110ac5760405162461bcd60e51b8152602060048201526014602482015273191ccb585d5d1a0b5d5b985d5d1a1bdc9a5e995960621b60448201526064016108b3565b6001600160a01b03831660009081526004602090815260408083206001600160e01b031986168452909152812054906110e960ff871660026129d7565b90508215611128576001600160a01b03851660009081526004602090815260408083206001600160e01b0319881684529091529020828217905561115f565b6001600160a01b03851660009081526004602090815260408083206001600160e01b03198816845290915290206000198218831690555b505050505050565b606060078054610779906128a3565b6001600160a01b038216600090815260036020526040812054600061119f60ff851660026129d7565b919091161515949350505050565b6111b8338383611dba565b5050565b6001600160a01b03831660009081526002602052604081205460ff168061121057506001600160a01b03831660009081526005602090815260408083206001600160e01b03198616845290915290205460ff165b1561121d5750600161125e565b506001600160a01b038381166000908152600360209081526040808320549386168352600482528083206001600160e01b0319861684529091529020541615155b9392505050565b61126f3383611a5c565b6112d25760405162461bcd60e51b815260206004820152602e60248201527f4552433732313a2063616c6c6572206973206e6f7420746f6b656e206f776e6560448201526d1c881b9bdc88185c1c1c9bdd995960921b60648201526084016108b3565b6112de84848484611e88565b50505050565b6040516bffffffffffffffffffffffff19606084901b1660208201526001600160f81b031960f883901b16603482015260009060350160408051601f1981840301815291815281516020928301206000818152600f90935291205490915061134b81611cb2565b506000908152600f60205260408120555050565b611375336000356001600160e01b031916611968565b6113b85760405162461bcd60e51b8152602060048201526014602482015273191ccb585d5d1a0b5d5b985d5d1a1bdc9a5e995960621b60448201526064016108b3565b6001600160a01b0390921660009081526005602090815260408083206001600160e01b0319909416835292905220805491151560ff19909216919091179055565b606061140482611896565b60006114126103e884612ae9565b60ff81166000908152600e60205260409020805491925090611433906128a3565b80601f016020809104026020016040519081016040528092919081815260200182805461145f906128a3565b80156114ac5780601f10611481576101008083540402835291602001916114ac565b820191906000526020600020905b81548152906001019060200180831161148f57829003601f168201915b5050505050915050919050565b606060008267ffffffffffffffff8111156114d6576114d66124cf565b6040519080825280602002602001820160405280156114ff578160200160208202803683370190505b506001600160a01b038086166000908152600c602052604081205492945091165b6001600160a01b0381161580159061154257506001600160a01b038116600114155b801561154d57508482105b156115a5578084838151811061156557611565612b0b565b6001600160a01b039283166020918202929092018101919091529181166000908152600c909252604090912054168161159d81612b21565b925050611520565b908352919491935090915050565b6115c9336000356001600160e01b031916611968565b61160c5760405162461bcd60e51b8152602060048201526014602482015273191ccb585d5d1a0b5d5b985d5d1a1bdc9a5e995960621b60448201526064016108b3565b6001600160a01b03919091166000908152600260205260409020805460ff1916911515919091179055565b6001600160a01b0381161580159061165957506001600160a01b038116600114155b61168d5760405162461bcd60e51b8152602060048201526005602482015264475331303160d81b60448201526064016108b3565b6001600160a01b038281166000908152600c60205260409020548116908216146116f95760405162461bcd60e51b815260206004820152600560248201527f475331303300000000000000000000000000000000000000000000000000000060448201526064016108b3565b6001600160a01b038181166000818152600c60209081526040808320805488871685528285208054919097166001600160a01b03199182161790965592849052825490941690915591519081527faab4fa2b463f581b2b32cb3b7e3b704b9ce37cc209b5fb4d77e593ace4054276910160405180910390a15050565b604051606083811b6bffffffffffffffffffffffff1916602083015260f883901b6001600160f81b03191660348301529060009060350160408051601f1981840301815291815281516020928301206000818152600f909352912054909150801561187e5760ff84166000908152600e6020526040902080546117f7906128a3565b80601f0160208091040260200160405190810160405280929190818152602001828054611823906128a3565b80156118705780601f1061184557610100808354040283529160200191611870565b820191906000526020600020905b81548152906001019060200180831161185357829003601f168201915b505050505092505050610764565b50506040805160208101909152600081529392505050565b6000818152600860205260409020546001600160a01b0316610b3d5760405162461bcd60e51b815260206004820152601860248201527f4552433732313a20696e76616c696420746f6b656e204944000000000000000060448201526064016108b3565b6000818152600a6020526040902080546001600160a01b0319166001600160a01b038416908117909155819061192f82610db8565b6001600160a01b03167f8c5be1e5ebec7d5bd14f71427d1e84f3dd0314c0f7b2291e5b200ac8c7c3b92560405160405180910390a45050565b6000306001600160a01b0384160361198257506001610764565b6001546001600160a01b03908116908416036119a057506001610764565b6000546001600160a01b03166119b857506000610764565b6000546040517fb70096130000000000000000000000000000000000000000000000000000000081526001600160a01b0385811660048301523060248301526001600160e01b0319851660448301529091169063b700961390606401602060405180830381865afa158015611a31573d6000803e3d6000fd5b505050506040513d601f19601f82011682018060405250810190611a559190612b3a565b9050610764565b600080611a6883610db8565b9050806001600160a01b0316846001600160a01b03161480611aaf57506001600160a01b038082166000908152600b602090815260408083209388168352929052205460ff165b80610c275750836001600160a01b0316611ac8846107fc565b6001600160a01b031614949350505050565b826001600160a01b0316611aed82610db8565b6001600160a01b031614611b695760405162461bcd60e51b815260206004820152602560248201527f4552433732313a207472616e736665722066726f6d20696e636f72726563742060448201527f6f776e657200000000000000000000000000000000000000000000000000000060648201526084016108b3565b6001600160a01b038216611be45760405162461bcd60e51b8152602060048201526024808201527f4552433732313a207472616e7366657220746f20746865207a65726f2061646460448201527f726573730000000000000000000000000000000000000000000000000000000060648201526084016108b3565b611bef838383611f11565b611bfa6000826118fa565b6001600160a01b0383166000908152600960205260408120805460019290611c23908490612b57565b90915550506001600160a01b0382166000908152600960205260408120805460019290611c51908490612b6e565b909155505060008181526008602052604080822080546001600160a01b0319166001600160a01b0386811691821790925591518493918716917fddf252ad1be2c89b69c2b068fc378daa952ba7f163c4a11628f55a4df523b3ef91a4505050565b6000611cbd82610db8565b9050611ccb81600084611f11565b611cd66000836118fa565b6001600160a01b0381166000908152600960205260408120805460019290611cff908490612b57565b909155505060008281526008602052604080822080546001600160a01b0319169055518391906001600160a01b038416907fddf252ad1be2c89b69c2b068fc378daa952ba7f163c4a11628f55a4df523b3ef908390a45050565b60006001836001811115611d6f57611d6f612b86565b03611d87576000808551602087018986f49050611d97565b600080855160208701888a87f190505b95945050505050565b8015611db0576109548383611f66565b61095483836112e4565b816001600160a01b0316836001600160a01b031603611e1b5760405162461bcd60e51b815260206004820152601960248201527f4552433732313a20617070726f766520746f2063616c6c65720000000000000060448201526064016108b3565b6001600160a01b038381166000818152600b6020908152604080832094871680845294825291829020805460ff191686151590811790915591519182527f17307eab39ab6107e8899845ad3d59bd9653f200f220920489ca2b5937696c31910160405180910390a3505050565b611e93848484611ada565b611e9f8484848461205e565b6112de5760405162461bcd60e51b815260206004820152603260248201527f4552433732313a207472616e7366657220746f206e6f6e20455243373231526560448201527f63656976657220696d706c656d656e746572000000000000000000000000000060648201526084016108b3565b611f1a33610a75565b6109545760405162461bcd60e51b815260206004820152601960248201527f4e6f207065726d697373696f6e20746f207472616e736665720000000000000060448201526064016108b3565b6040516bffffffffffffffffffffffff19606084901b1660208201526001600160f81b031960f883901b16603482015260009060350160408051601f1981840301815291815281516020928301206000818152600f909352912054909150156120115760405162461bcd60e51b815260206004820152601660248201527f416c726561647920686173206120726f6c65204e46540000000000000000000060448201526064016108b3565b6000600d548360ff166120249190612b6e565b6000838152600f60205260408120829055600d80549293506103e89290919061204e908490612b6e565b909155506112de905084826121b2565b60006001600160a01b0384163b156121aa57604051630a85bd0160e11b81526001600160a01b0385169063150b7a02906120a2903390899088908890600401612b9c565b6020604051808303816000875af19250505080156120dd575060408051601f3d908101601f191682019092526120da91810190612bd8565b60015b612190573d80801561210b576040519150601f19603f3d011682016040523d82523d6000602084013e612110565b606091505b5080516000036121885760405162461bcd60e51b815260206004820152603260248201527f4552433732313a207472616e7366657220746f206e6f6e20455243373231526560448201527f63656976657220696d706c656d656e746572000000000000000000000000000060648201526084016108b3565b805181602001fd5b6001600160e01b031916630a85bd0160e11b149050610c27565b506001610c27565b6001600160a01b0382166122085760405162461bcd60e51b815260206004820181905260248201527f4552433732313a206d696e7420746f20746865207a65726f206164647265737360448201526064016108b3565b6000818152600860205260409020546001600160a01b03161561226d5760405162461bcd60e51b815260206004820152601c60248201527f4552433732313a20746f6b656e20616c7265616479206d696e7465640000000060448201526064016108b3565b61227960008383611f11565b6001600160a01b03821660009081526009602052604081208054600192906122a2908490612b6e565b909155505060008181526008602052604080822080546001600160a01b0319166001600160a01b03861690811790915590518392907fddf252ad1be2c89b69c2b068fc378daa952ba7f163c4a11628f55a4df523b3ef908290a45050565b6001600160e01b031981168114610b3d57600080fd5b60006020828403121561232857600080fd5b813561125e81612300565b6001600160a01b0381168114610b3d57600080fd5b60006020828403121561235a57600080fd5b813561125e81612333565b6000815180845260005b8181101561238b5760208185018101518683018201520161236f565b8181111561239d576000602083870101525b50601f01601f19169290920160200192915050565b60208152600061125e6020830184612365565b6000602082840312156123d757600080fd5b5035919050565b600080604083850312156123f157600080fd5b82356123fc81612333565b946020939093013593505050565b803560ff8116811461241b57600080fd5b919050565b6000806040838503121561243357600080fd5b823561243e81612333565b915061244c6020840161240a565b90509250929050565b60008060006060848603121561246a57600080fd5b833561247581612333565b9250602084013561248581612333565b929592945050506040919091013590565b600080604083850312156124a957600080fd5b82356124b481612333565b915060208301356124c481612300565b809150509250929050565b634e487b7160e01b600052604160045260246000fd5b600067ffffffffffffffff80841115612500576125006124cf565b604051601f8501601f19908116603f01168101908282118183101715612528576125286124cf565b8160405280935085815286868601111561254157600080fd5b858560208301376000602087830101525050509392505050565b600082601f83011261256c57600080fd5b61125e838335602085016124e5565b6000806000806080858703121561259157600080fd5b843561259c81612333565b935060208501359250604085013567ffffffffffffffff8111156125bf57600080fd5b6125cb8782880161255b565b9250506060850135600281106125e057600080fd5b939692955090935050565b8215158152604060208201526000610c276040830184612365565b8015158114610b3d57600080fd5b60008060006060848603121561262957600080fd5b833561263481612333565b92506126426020850161240a565b9150604084013561265281612606565b809150509250925092565b6000806040838503121561267057600080fd5b6126798361240a565b9150602083013567ffffffffffffffff81111561269557600080fd5b8301601f810185136126a657600080fd5b6126b5858235602084016124e5565b9150509250929050565b600080600080608085870312156126d557600080fd5b6126de8561240a565b935060208501356126ee81612333565b925060408501356126fe81612300565b915060608501356125e081612606565b6000806040838503121561272157600080fd5b823561272c81612333565b915060208301356124c481612606565b60008060006060848603121561275157600080fd5b833561275c81612333565b9250602084013561276c81612333565b9150604084013561265281612300565b6000806000806080858703121561279257600080fd5b843561279d81612333565b935060208501356127ad81612333565b925060408501359150606085013567ffffffffffffffff8111156127d057600080fd5b6127dc8782880161255b565b91505092959194509250565b6000806000606084860312156127fd57600080fd5b833561280881612333565b9250602084013561264281612300565b604080825283519082018190526000906020906060840190828701845b8281101561285a5781516001600160a01b031684529284019290840190600101612835565b5050506001600160a01b039490941692019190915250919050565b6000806040838503121561288857600080fd5b823561289381612333565b915060208301356124c481612333565b600181811c908216806128b757607f821691505b6020821081036128d757634e487b7160e01b600052602260045260246000fd5b50919050565b634e487b7160e01b600052601160045260246000fd5b600181815b8085111561292e578160001904821115612914576129146128dd565b8085161561292157918102915b93841c93908002906128f8565b509250929050565b60008261294557506001610764565b8161295257506000610764565b816001811461296857600281146129725761298e565b6001915050610764565b60ff841115612983576129836128dd565b50506001821b610764565b5060208310610133831016604e8410600b84101617156129b1575081810a610764565b6129bb83836128f3565b80600019048211156129cf576129cf6128dd565b029392505050565b600061125e8383612936565b601f82111561095457600081815260208120601f850160051c81016020861015612a0a5750805b601f850160051c820191505b8181101561115f57828155600101612a16565b815167ffffffffffffffff811115612a4357612a436124cf565b612a5781612a5184546128a3565b846129e3565b602080601f831160018114612a8c5760008415612a745750858301515b600019600386901b1c1916600185901b17855561115f565b600085815260208120601f198616915b82811015612abb57888601518255948401946001909101908401612a9c565b5085821015612ad95787850151600019600388901b60f8161c191681555b5050505050600190811b01905550565b600082612b0657634e487b7160e01b600052601260045260246000fd5b500690565b634e487b7160e01b600052603260045260246000fd5b600060018201612b3357612b336128dd565b5060010190565b600060208284031215612b4c57600080fd5b815161125e81612606565b600082821015612b6957612b696128dd565b500390565b60008219821115612b8157612b816128dd565b500190565b634e487b7160e01b600052602160045260246000fd5b60006001600160a01b03808716835280861660208401525083604083015260806060830152612bce6080830184612365565b9695505050505050565b600060208284031215612bea57600080fd5b815161125e8161230056fea26469706673582212201f216b5b33ac829fe7653ab4baadbf1994ca9abf861fda652759002f4c42a17c64736f6c634300080f0033d421a5181c571bba3f01190c922c3b2a896fc1d84e86c9f17ac10e67ebef8b5c",
  "linkReferences": {},
  "deployedLinkReferences": {}
}